:400000000080002011000000410100004101000008B5044B1A6803F53F5302331A6000F097F800BFFA46004010B5054C237833B9044B13B10448AFF300800123237010BD64
:400040008081FF1F000000007C230000084B10B51BB108480849AFF300800848036803B910BD074B002BFBD0BDE81040184700BF000000007C2300008481FF1F0881FF1F13
:40008000000000000000000070B562B600F014FA0020022100F02CFB00F06EFB0028FBD0234C01202146032200F06CFB00F0C6F9606000F0C3F91E4C6568451B60606570A5
:4000C000A0681C4901F0CAFF064685EAE570A0EBE57001F06FFF184901F0C0FF0146304601F0B4FEA06001F0CFFD0FA3D3E9002301F09CFE10B10122227302E000220C4B6C
:400100001A730B4B1B7B0BB1022200E00022084B1A70012000F080FB0028FAD001200449032200F02FFBC4E7F168E388B5F8E43E9C81FF1FCDCC4C3FCDCC4C3EAFF300807A
:4001400008B502F0DBF803680C2B00D1FEE7FEE708B5104E104D16E029686B68AC68002204E051F8040B43F8040B0432A242F8D1E868002203E0002143F8041B0432824285
:40018000F9D11035013E002EE6D102F0BDF8FFF77BFFFEE701000000F024000008B5124A124B1A60124A136843F40073136000230AE0032B03D80F4A52F8231000E00E49F4
:4001C0000E4A42F8231001332F2BF2D90C4B1A780C4B1A70094A0C4B1A6000F0B1F800220A4B1A6008BD00BF0004FA050CED00E014ED00E000000000410100000080FF1F48
:40020000BC7600400481FF1F08ED00E00081FF1FFEE700BFF0B40022174611E050F82760F3B226F0FF0608E001EB420511F812406D78A5550132013BDBB2002BF4D1013775
:40024000162FEBD9F0BC7047064B1B78DBB203F00701054A11701B09013213704422034B1A707047CF0100496E5800407658004038B541F61F42244B1A80182202331A7053
:40028000062203F27E231A705222A3F580731A701E4B1B78DBB21E4A13704FF4E3621D4B1A8042F25122023B1A80002419250CE0194B1B7803F0010343EA440404F0030445
:4002C0004FF4F07001F040FB013D0DB1032CEFD115B90320FFF79CFF104A4FF4807313800723137000230E490B7048200231087013700532137002220A4B1A700A4A1378CB
:4003000043F00103137038BD804000400F010049A14600402242004025420040044000400640004001400040A243004008B50A46002102F01AF808BD08B502F00BF808BD25
:4003400010B572B66122274B1A70FFF791FF264A137843F00403137000240CE0234963001A1952000A4423445B00C8589188FFF7DDFF0134E4B2072CF0D94FF090401C4919
:40038000FFF748FF1B4A137843F0020313701032137843F002031370174C237843F040032370A2F58632513A137843F010031370124813490A22FFF7BFFF12481249082223
:4003C000FFF7BAFF8422114B1A70114A137843F008031370FFF738FF0E4821460E22FFF7ABFF10BD00480040E8460040802300005C00004803500140A0430040F05100401F
:400400009C03004812510040A8030048DB08014022430040B043004008B50122054B1A600020054901F064FA0020072101F074FA08BD00BF80E100E0ED04000010B5012495
:40044000064B1C6001F0E0F9A0F5004000B2044B1B68044A1460184410BD00BF80E100E0B081FF1F00E100E0024B187800F00F00704700BF6A65004040F00700014B187025
:40048000704700BF8A65004008B50F20FFF7F4FFFFF7EAFF01F060FA054A137843F01003137001F05DFA0122024B1A6008BD00BF9A65004000E100E008B501F0F7F94FF45E
:4004C000004001F09BF90022064B1A60064B1B7823B9FFF7A1FF0122034B1A70FFF7D4FF08BD00BFB081FF1FAC81FF1F0D4B1B78DBB213F0010F06D00B490A6802F5FF42B3
:400500007F320A6007E013F0020F04D006490A68A2F500420A6013F0040F02D00022024B1A6070476A650040B081FF1FF8B501F013FA0646344A137843F0010313701032EB
:40054000137843F0010313700125304B1D700227943B1F7002F5E2521B32137803F07F031370002001F0BAF9294C237803F0F9032370284A137803F0DF03137023782B43D2
:400580002370284601F0AAF9282001F0A7F9224B1A7802F07F021A701A7802F0BF021A7023783B432370384601F098F9237843F0040323700023194A1370013213703046B9
:4005C00001F0CEF91720072101F0A6F91720144901F08EF91820072101F09EF91820114901F086F92846072101F096F928460E4901F07EF90C20072101F08EF90C200B49CF
:4006000001F076F9F8BD00BFA54300409D6000409443004012600040F851004084600040D10C00002D0B0000A10C00005D0F000010B5002304E00124204AD4542344DBB266
:40064000002BF8D01E4B187000231E4A13701E4A13701E4A13701E4A13701E4A13701E4A13701E4A13701E4B4FF400021A604FF080721A6002221A6011B1012906D00BE0E8
:40068000184A137803F0FE0313700AE0154A137843F00103137004E0124A137843F0010313700322104B1A708022203B1A70012001F04AF904220D4B1A7010BD6082FF1F08
:4006C000CC81FF1FE381FF1FE281FF1FDC81FF1FE181FF1FCD81FF1F5582FF1FC081FF1F00E100E009600040286000401260004038B505460C46064B1B7823B9FFF716FF98
:400700000122034B1A7028462146FFF791FF38BDB481FF1F002304E001210E4AD1540B44DBB2002BF8D000230B4A13700B4A13700B4A13700B4A13700B4A13700B4A137073
:400740000B4A137003220B4B1A708022203B1A70704700BF6082FF1FE381FF1FE281FF1FDC81FF1FE181FF1FCD81FF1F5582FF1FC081FF1F28600040014B1878704700BFC7
:40078000DC81FF1F431EDBB2072B3BD8F0B4074600EB40039B001C4C2344DB889BB2C3F500739A4207D900EB40039B002344DA88C2F5007292B200EB40039B00124C2344DE
:4007C000DB7843EA1223114D04012E192B55D3B2737039B909E0CE5C3D010D4C665501339BB200E000239342F5D3430003449B00054A134400225A705A79D2B20001054BDB
:400800001A54F0BC704700BFE481FF1FFC5F004078600040FE5F0040431EDBB2072B06D80001044B185C00F01000C0B270470020704700BFFE5F00401C4B19781C4A13883E
:400840000B449BB2138000230EE01A4A51680978C9B21948C1545168013151600133DBB21188013989B21180124A128892B20AB1072BEAD90D4A1278D2B2082A00D05BB150
:400880000E490A7882F080020A700F210C4A117002210C4A117004E0022209490A7009490A70094A1370014A13707047C081FF1FC281FF1FD081FF1F006000405082FF1F36
:4008C000CF81FF1FE381FF1FCE81FF1F0222074B1A708022064B1A700F22064B1A700023054A1370054A137001207047E381FF1F5082FF1FCF81FF1FC081FF1FCE81FF1FC7
:4009000008B5FFF799FF08BD10B4184B197801F00F010239C9B2164A13880B449BB21380002010E0134B5C68134A125CD2B222705A6801325A600130C0B20139C9B21A8852
:40094000013A92B21A800B4B1B889BB20BB10029E8D10A4B19700A4A137883F0800313700B22084B1A705DF8044B704729600040C281FF1FD081FF1F00600040CE81FF1F39
:400980005082FF1FCF81FF1F0623064A1370064A13708022054B1A700022054B1A700120704700BFE381FF1FCF81FF1F5082FF1FCE81FF1F064B9B6843B1054B9A68107094
:4009C0009A6804490988518000229A60704700BFD081FF1FC281FF1F08B5134B1A78D2B21A701B78DBB213F0800F02D00F4A137008BD0220FFF7DEFF0D4B1B7803F06003CE
:400A0000202B05D0402B06D043B900F045FD06E000F0AAFF03E000F0D1FE00E0002010B90322024B1A7008BD28600040CF81FF1F0060004008B5084B1978084A13880B44C9
:400A40009BB213800022064B1A700120FFF7B2FF0322044B1A7008BDC081FF1FC281FF1FE381FF1FCF81FF1F08B50B4B1B78DBB2042B06D0062B07D0022B0BD1FFF7DAFF46
:400A800008BDFFF741FF08BD0320FFF793FF0322024B1A7008BD00BFE381FF1FCF81FF1F08B50022044B1A700120FFF783FF0322024B1A7008BD00BFE381FF1FCF81FF1F9A
:400AC00008B50B4B1B7813F0FF0F07D0084A137843F0800307490B70002313700022064B1A700120FFF766FF0322044B1A7008BDCD81FF1F08600040E381FF1FCF81FF1F24
:400B000008B5094B1B78DBB2042B06D0062B07D0022B07D1FFF7F4FE08BDFFF7C1FF08BDFFF7CEFF08BD00BFE381FF1F08B5284B1B78DBB213F0100F48D013F0800F0CD089
:400B400003F00F03012B16D1FFF746FF214B1B7813F0800F11D1012312E013F0400F03D0FFF7CEFF01230BE013F0200F07D0FFF77BFF012304E0002302E0002300E00023F6
:400B800023B3134B1B7813F0800F1FD1124B1B78124A12781343124A13701278D2B29A4214D10C4B1B78DBB2094A127812F0800F07D1084B1B78DBB2054A1370137803F092
:400BC0000F03044A1278D2B29342EAD108BD00BF28600040CF81FF1F5082FF1FCE81FF1F296000400022064B1A80064B9B682BB1044A916800230B7092685380704700BFB2
:400C0000C281FF1FD081FF1F08B50F4B1B889BB213B9FFF75BFE15E002220C4B1A7000220B4B1A70FFF7DEFF0A4AD179937943EA0123054A128892B29A4201D9024A138036
:400C4000FFF7FAFD012008BDD081FF1FE381FF1F5082FF1F0060004008B504220B4B1A7080220B4B1A70FFF7BDFF0A4AD179937943EA0123084A128892B29A4201D9064AF8
:400C800013800B22054B1A70012008BDE381FF1F5082FF1F00600040D081FF1FCF81FF1F0122094B1A700F3B9B7C084B1B7B03F00303934204D0054AD37B83F08003D373FF
:400CC0000122024B5A7370470B600040E481FF1F08B5FFF71FFD08BD08B50B4B18780138C0B200F091F9094B1B79DBB200EBC30042690749CB5C02EBC3035B68596A0B7875
:400D0000044A1380516008BDDC81FF1F00600040C481FF1FD081FF1F08B50D4B18780138C0B200F071F90B4B1B79DBB200EBC30042690949CB5C02EBC3035B68DB695978F1
:400D400013F8022B42EA012204490A804B6008BDDC81FF1F00600040C481FF1FD081FF1F10B50022194B1A80194B18780138C0B200F04AF9174AD378DBB21279D2B200EBCE
:400D8000C200416902BB1448825C01EBC20149685A1ED2B2022A17D803F10053013B01EBC3000C4A9278D2B211F8333093420BD3406802EB4202920081184C68034B5C6062
:400DC000825A1A808A689A6010BD00BFD081FF1FDC81FF1F00600040C481FF1F08B55A4B1A79D2B21B7813F0800F4DD0564B5B78013B052B00F28C80DFE803F0212B3B8AB4
:400E00008A03514BDB78DBB2212B09D1FFF764FF4E4B1B889BB2002B7CD0FFF7F5FE08BD494BDB78DBB2222B76D1FFF775FF474B1B889BB2002B71D0FFF7E6FE08BDFFF787
:400E40008FFF424B1B889BB2002B69D0FFF7DCFE08BD002A66D13C4B9B7813F0FF0F63D13A4901230B803A4B1A444A60FFF7CCFE08BD002A5AD1354901230B80354B1A448A
:400E80004A60FFF7C1FE08BD2F4B5B78DBB20A2B0DD00B2B2ED0092B4AD1FFF761FF2B4B1B889BB2002B45D0FFF7D6FE08BD002A42D1254B9B7813F0FF0F3FD1224BDB7873
:400EC000DBB223498B548B5C2349895CDBB28B4203D20021204B995409E01F4B9B5CDBB2012B04D91A4B9B5CDBB21B498B54FFF74BFD08BD22BB144B9B78DBB2012B21D82A
:400F0000114B9B78DBB213498B54FFF73DFD08BD002008BD002008BD002008BD002008BD002008BD002008BD002008BD002008BD002008BD002008BD002008BD002008BDC9
:400F4000002008BD002008BD00600040D081FF1F5C82FF1F6082FF1F5882FF1F08B500F0B3FC08BD10B401223DE0114613010C242148C45402EB42039B00204803445B7913
:400F800013F0FF0F12D002EB42039B0003441B7913F0800F04D01001194B03449C700AE01001174B03440820987004E01001144B0344802098704B000B449B000F4803447E
:400FC000DC88E4B208010C4901448C71D888C0F30720C871D888C0B20871DB88C3F307234B710132D2B2082ABFD9FF22054B1A705DF8044B704700BF70600040E481FF1F71
:40100000FC5F00400A600040074B1B78074A02EBC30253681A7C824203D903EBC003586970470020704700BFCC81FF1FB0230000F8B5404B1B7813F0FF0F79D03D4B187858
:401040000138C0B2FFF7E0FF047AC2683A4B1878C0B200236AE01178814264D13749095CC9B25578A9425ED1917801F07F01D67806F00306DFF8C8E04D000D44AD000EEB02
:4010800005074FF0000C87F803C092F802C087F804C092F803C00EF805C095883D8192F90250002D0DDA012E01D1072700E00D274D000D44AD00224E35446F7101266E70C8
:4010C0000CE0012E01D1052700E009274D000D44AD001B4E35446F7100266E70DFF868E00F010EEB07060125B57001FA05F529448900134D29440D89C5F307250EF80750A7
:401100000D89EDB27570CE88F6B20E4D3D44AE71CE88C6F30726EE71CE88F6B22E71C988C1F30721697108320133DBB2A34292D3F8BD00BFDC81FF1FE181FF1FC481FF1F46
:40114000E481FF1F70600040FC5F0040034B1A78034B03EBC2035868704700BFCC81FF1FB023000008B5074B18780138C0B2FFF74BFF28B14268127900EBC203586908BD1E
:40118000002008BDDC81FF1FF8B500220EE0654E53009D18AD00741900217155A170E1702181A172617061710132D2B2082AEED940B90AE000225C49CA545C49CA5401330D
:4011C000DBB200E00023002BF4D0594B1B7813F0FF0F00F0A580564B18780138C0B2FFF713FF4368DB7913F0400F05D0514A137843F00103137004E04E4A137803F0FE032E
:401200001370057A012461E0C16800235AE08A7802F07F02944252D1264604EB44029200404F3A44128992B28F88BA4206D204EB44029200DFF8ECE0724417810A783A4F85
:40124000BA5CD2B24F78BA4239D191F802C0354F72003244920007EB020E8EF804C091F803E007F802E0CA7802F0030291F90270002F11DA012A02D14FF0070C01E04FF066
:401280000D0CDFF8A0E072009719BF00774487F805C001227A7012E0012A02D14FF0050C01E04FF0090C1F4F4FEA460E0EEB060292003A4482F805C0164600227270083178
:4012C0000133DBB2AB42A2D30134E4B2082C9BD9C06800220CE0837803F07F0310F8084B03EB43039B0014490B449C700132D2B2AA42F0D3FFF736FF104B18600020012229
:401300000AE0084C5300991889002144C8800B89184480B20132D2B2082AF2D9FFF722FEF8BD00BFE481FF1FC481FF1FE081FF1FDC81FF1F5582FF1FEC81FF1FC881FF1F0E
:4013400008B5154B1A7902F07F02531EDBB2072B20D8530013449B0010490B44997841F0010199700021D970597841F0020159701B7913F0800F05D01201094B13448D2248
:401380009A7004E01201064B134489229A70FFF7FBFA08BD002008BD00600040E481FF1FFC5F0040264B1B7903F07F035A1ED2B2072A43D810B55A001A44920021490A44F3
:4013C000917801F0FE0191700021D17019017F241D484454517801F0FD015170127912F0800F14D003EB4302920016490A445278D2B2012A05D11B0102461A440C239370A9
:4014000019E01B01104A1A440D23937013E003EB430292000B490A445278D2B2012A05D11B01094A1A440823937004E01B01064A1A4409239370FFF7A7FA10BD00207047F0
:4014400000600040E481FF1FFC5F004010B50E4B1C79E4B20D4B18780138C0B2FFF7D4FD43681B799C4201D9012C0AD8084A135DDBB208490B55044B9B78DBB2135501208D
:4014800010BD002010BD00BF00600040DC81FF1FC481FF1FE081FF1F10B59A4B1B78DBB20021994A118013F0800F00F09C80954A5278D2B20A2A00F25D81DFE812F0580067
:4014C0005B015B015B015B015B010B005B0181005B0189008B4BDB78DBB2012B09D1FFF735FE4268884B5A6012221A80FFF78CFB10BD844BDB78DBB2022B13D1814B987883
:40150000FFF782FD002800F0378142687E4B5A605A68D1785A68927842EA01221A80FFF773FB10BD774BDB78DBB2032B05D01BE00A7811440133DBB201E000237349714A95
:401540009278D2B29A4203D90A7812F0FF0FEFD10B7813F0FF0F00F011810B786A4A13805160FFF751FB10BD00F0FEF910BD13F0030317D0022B40F0038163490B80614BCB
:401580001B7903F07F0303EB43039B00604A13449A78D2B25F4B1A7000225A704B60FFF733FB10BD584902230B805B4B1A78D2B2584B1A7000225A704B60FFF725FB10BD4C
:4015C000514B01221A80554A5A60FFF71DFB10BD4D4A012313804B4B1B7951490B445360FFF712FB10BD474A5278013A0A2A00F2C980DFE812F04B00C7007800C7000B0050
:40160000C700C700C7001300C70030003D4B9B78DBB2444A1370FFF7B7F910BD394B9B7803F0FF041BB1601EC0B2FFF7EDFC04B110B9002C40F0A880384B1B78DBB29C42F4
:4016400006D0364B1C700120374B1870FFF79CFDFFF79AF910BDFFF7F9FE002800F09680284A1379DBB21279D2B230490A70304AD25C2B49C95CD3B28B4204D001222A4BD0
:401680001A70FFF7D5FCFFF77FF910BD03F00303012B17D04BB1022B7AD11A4B9B7813F0FF0F77D1FFF77EFE10BD164B9B78DBB2012B71D1184A137803F0FD031370FFF746
:4016C00063F910BD0F4B1B7913F0FF0F66D10D4B98781B79DBB21749CA5C22EA0002CA54FFF752F910BD03F00303012B31D01BB3022B55D1034B9B7813F0FF0F52D1FFF770
:401700001FFE10BD00600040D081FF1F70240000E481FF1FB881FF1F5582FF1FDC81FF1FC481FF1FCD81FF1FE281FF1FE181FF1FE081FF1F5482FF1F1D4B9B78DBB2012B5B
:4017400032D11C4A137843F002031370FFF71CF910BD174B1B7913F0FF0F27D1144B98781B79DBB21449CA5C22EA0002CA54FFF70BF910BD002010BD002010BD002010BD16
:40178000002010BD002010BD002010BD002010BD002010BD002010BD002010BD002010BD002010BD002010BD002010BD002010BD006000405582FF1F5482FF1F044B1B78A2
:4017C00013F0800F01D0024B5B780020704700BF00600040024A137843F080031370704779640040014B1870704700BF89640040014B1878704700BF69640040014B188092
:40180000704700BF106A0040024B1B78024B188880B2704708650040906A0040014B188880B27047906A0040014B1880704700BF506A0040014B1880704700BF706A004004
:4018400008B501E0FFF7EAFFFFF7D2FF10F0400FF8D108BD08B5134B1A7802F0F8021A701A7802F0FC021A70FFF7EAFF4FF40040FFF7DAFF4FF40040FFF7C0FF0020FFF799
:40188000B1FFFFF7B5FF4FF40040FFF7D3FF00F063F8054A137843F01003137000F060F808BD00BF796400409964004008B5054B1B7823B9FFF7CEFF0122024B1A70FFF740
:4018C00089FF08BDBC81FF1F024B1878C0F38010704700BF8F45004001BE704708B5034B1B7A03FB00F000F02FF808BD0C81FF1F70B504460E46074B1D681F2802D900202F
:40190000FFF7EAFF04F01F04103455F8240045F8246070BD08ED00E038B504460D46072902D90020FFF7D8FF1F2C02D90020FFF7D3FF04F01F0000F1604000F564406D01FE
:40194000EDB2057038BD00BF0230800803D000BF01380046FCD17047EFF3108072B6704780F31088704700BF08B5124B1B7803F00303012B02D0022B04D00FE00D4B1B79FE
:40198000DBB20CE00B4B1B7903F07F0303EB43039B00094A13449B78DBB200E00023074A1268D35C032B02D1FFF718FA08BD002008BD00BF00600040EC81FF1FC881FF1F35
:4019C00081F0004102E000BF83F0004330B54FEA41044FEA430594EA050F08BF90EA020F1FBF54EA000C55EA020C7FEA645C7FEA655C00F0E2804FEA5454D4EB5555B8BF3B
:401A00006D420CDD2C4480EA020281EA030382EA000083EA010180EA020281EA0303362D88BF30BD11F0004F4FEA01314FF4801C4CEA113102D0404261EB410113F0004F28
:401A40004FEA03334CEA133302D0524263EB430394EA050F00F0A780A4F10104D5F1200E0DDB02FA0EFC22FA05F2801841F1000103FA0EF2801843FA05F359410EE0A5F196
:401A800020050EF1200E012A03FA0EFC28BF4CF0020C43FA05F3C01851EBE37101F0004507D54FF0000EDCF1000C7EEB00006EEB0101B1F5801F1BD3B1F5001F0CD34908B0
:401AC0005FEA30004FEA3C0C04F101044FEA445212F5800F80F09A80BCF1004F08BF5FEA500C50F1000041EB045141EA050130BD5FEA4C0C404141EB010111F4801FA4F132
:401B00000104E9D191F0000F04BF01460020B1FA81F308BF2033A3F10B03B3F120020CDA0C3208DD02F1140CC2F10C0201FA0CF021FA02F10CE002F11402D8BFC2F1200C3E
:401B400001FA02F120FA0CFCDCBF41EA0C019040E41AA2BF01EB0451294330BD6FEA04041F3C1CDA0C340EDC04F11404C4F1200220FA04F001FA02F340EA030021FA04F3BC
:401B800045EA030130BDC4F10C04C4F1200220FA02F001FA04F340EA0300294630BD21FA04F0294630BD94F0000F83F4801306BF81F480110134013D4EE77FEA645C18BF67
:401BC0007FEA655C29D094EA050F08BF90EA020F05D054EA000C04BF1946104630BD91EA030F1EBF0021002030BD5FEA545C05D14000494128BF41F0004130BD14F5800456
:401C00003CBF01F5801130BD01F0004545F0FE4141F470014FF0000030BD7FEA645C1ABF194610467FEA655C1CBF0B46024650EA013406BF52EA033591EA030F41F40021D9
:401C400030BD00BF90F0000F04BF0021704730B54FF4806404F132044FF000054FF0000150E700BF90F0000F04BF0021704730B54FF4806404F1320410F0004548BF4042AE
:401C80004FF000013EE700BF42004FEAE2014FEA31014FEA02701FBF12F07F4393F07F4F81F06051704792F0000F14BF93F07F4F704730B54FF4607401F0004521F00041D0
:401CC00020E700BF50EA010208BF704730B54FF000050AE050EA010208BF704730B511F0004502D5404261EB41014FF4806404F132045FEA915C3FF4DCAE4FF003025FEAB1
:401D0000DC0C18BF03325FEADC0C18BF033202EBDC02C2F1200300FA03FC20FA02F001FA03FE40EA0E0021FA02F11444C1E600BF4FF0FF3C06E000BF4FF0010C02E000BFC0
:401D40004FF0010C4DF804CD4FEA410C7FEA6C5C4FEA430C18BF7FEA6C5C1BD001B050EA410C0CBF52EA430C91EA030F02BF90EA020F0020704710F1000F91EA030F58BFDD
:401D8000994208BF90422CBFD8176FEAE37040F0010070474FEA410C7FEA6C5C02D150EA013C07D14FEA430C7FEA6C5CD6D152EA033CD3D05DF8040B704700BF84461046F0
:401DC00062468C461946634600E000BF01B5FFF7B7FF002848BF10F1000F01BD4DF808EDFFF7F4FF0CBF012000205DF808FB00BF4DF808EDFFF7EAFF34BF012000205DF87B
:401E000008FB00BF4DF808EDFFF7E0FF94BF012000205DF808FB00BF4DF808EDFFF7CEFF94BF012000205DF808FB00BF4DF808EDFFF7C4FF34BF012000205DF808FB00BF40
:401E400080F0004002E000BF81F0004142001FBF5FEA410392EA030F7FEA226C7FEA236C6AD04FEA1262D2EB1363C1BFD218414048404140B8BF5B42192B88BF704710F0D1
:401E8000004F40F4000020F07F4018BF404211F0004F41F4000121F07F4118BF494292EA030F3FD0A2F1010241FA03FC10EB0C00C3F1200301FA03F100F0004302D54942EF
:401EC00060EB4000B0F5000F13D3B0F1807F06D340084FEA310102F10102FE2A51D2B1F1004F40EBC25008BF20F0010040EA03007047490040EB000010F4000FA2F1010249
:401F0000EDD1B0FA80FCACF1080CB2EB0C0200FA0CF0AABF00EBC25052421843BCBFD0401843704792F0000F81F4000106BF80F400000132013BB5E74FEA41037FEA226CBA
:401F400018BF7FEA236C21D092EA030F04D092F0000F08BF0846704790EA010F1CBF0020704712F07F4F04D1400028BF40F00040704712F100723CBF00F50000704700F0A7
:401F8000004343F0FE4040F4000070477FEA226216BF08467FEA23630146420206BF5FEA412390EA010F40F4800070474FF0000304E000BF10F0004348BF40425FEA000C8B
:401FC00008BF704743F0964301464FF000001CE050EA010208BF70474FF000030AE000BF50EA010208BF704711F0004302D5404261EB41015FEA010C02BF84460146002001
:4020000043F0B64308BFA3F18053A3F50003BCFA8CF2083AA3EBC25310DB01FA02FC634400FA02FCC2F12002BCF1004F20FA02F243EB020008BF20F00100704702F120025C
:4020400001FA02FCC2F1200250EA4C0021FA02F243EB020008BF20EADC7070474FF0FF0C1CEAD0521EBF1CEAD15392EA0C0F93EA0C0F6FD01A4480EA010C400218BF5FEADB
:4020800041211ED04FF0006343EA501043EA5111A0FB01310CF00040B1F5000F3EBF490041EAD3715B0040EA010062F17F02FD2A1DD8B3F1004F40EBC25008BF20F0010021
:4020C000704790F0000F0CF0004C08BF49024CEA502040EA51207F3AC2BFD2F1FF0340EAC250704740F400004FF00003013A5DDC12F1190FDCBF00F000407047C2F10002C1
:40210000410021FA02F1C2F1200200FA02FC5FEA310040F1000053EA4C0308BF20EADC70704792F0000F00F0004C02BF400010F4000F013AF9D040EA0C0093F0000F01F0DA
:40214000004C02BF490011F4000F013BF9D041EA0C018FE70CEAD15392EA0C0F18BF93EA0C0F0AD030F0004C18BF31F0004CD8D180EA010000F00040704790F0000F17BF38
:4021800090F0004F084691F0000F91F0004F14D092EA0C0F01D142020FD193EA0C0F03D14B0218BF084608D180EA010000F0004040F0FE4040F40000704740F0FE4040F4E4
:4021C000400070474FF0FF0C1CEAD0521EBF1CEAD15392EA0C0F93EA0C0F69D0A2EB030280EA010C49024FEA402037D04FF0805343EA111143EA10130CF000408B4238BF62
:402200005B0042F17D024FF4000C8B4224BF5B1A40EA0C00B3EB510F24BFA3EB510340EA5C00B3EB910F24BFA3EB910340EA9C00B3EBD10F24BFA3EBD10340EADC001B01B0
:4022400018BF5FEA1C1CE0D1FD2A3FF650AF8B4240EBC25008BF20F0010070470CF0004C4CEA50207F32C2BFD2F1FF0340EAC250704740F400004FF00003013A37E792F038
:40228000000F00F0004C02BF400010F4000F013AF9D040EA0C0093F0000F01F0004C02BF490011F4000F013BF9D041EA0C0195E70CEAD15392EA0C0F08D142027FF47DAF72
:4022C00093EA0C0F7FF470AF084676E793EA0C0F04D14B023FF44CAF08466EE730F0004C18BF31F0004CCAD130F000427FF45CAF31F000437FF43CAF5FE700BF014B1868C0
:40230000704700BF7C81FF1F0E4B70B51E460E4C0025E41AA410A54204D056F8253098470135F8E700F0D2F8084B094C1E46E41AA4100025A54204D056F825309847013597
:40234000F8E770BDD8240000D8240000D8240000E024000010B5431E0A44914204D011F8014B03F8014FF8E710BD03460244934202D003F8011BFAE770470000000000000D
:40238000005100401000205100405000C0510040100000000140001000140140000800400140000A004C0140000200500140200001000000B823000001000000B4240000EC
:4023C000000000000000000001000000D0230000010000009024000001000000F423000001000000FC23000000000000F02300000300000000008103080003000100000056
:4024000004240000000000002C24000000000000000000000000000000000000010000003824000001000000A2240000040000006882FF1F6482FF1F320005010902A1010B
:402440000901A100050919012903150025019503750181029501750581010501093009311581257F750895028106C0C000000000040309040E0343006F00730069006E0010
:4024800065000A036E00300030006200000000000902220001010080190904000001030000000921110100012232000705810308000A00001201000200000008B4045180C8
:4024C000000001020001000043000000F8B500BFF8BC08BC9E4670474D0000009D010000F8B500BFF8BC08BC9E46704729000000002500000881FF1F78000000F00000004F
:40250000000000000000A08C401901004800000000A24A040000000000000000000000000000000000000000000000000000000000000000C82400000000000000000000F1
:40254000000000000000000000000000000000000000000000000000000000000000000000000000000000000000000000000000000000001C81FF1F0000000000000000A0
:40258000000000000000000000000000000000000000000000000000000000000000000000000000000000000000000000000000000000000000000000000000000000001B
:4025C00000000000000000000000000000000000000000000000000000000000000000000000000000000000000000000000000000000000000000000000000000000000DB
:40260000000000000000000000000000000000000000000000000000000000000000000000000000000000000000000000000000000000000000000000000000000000009A
:40264000000000000000000000000000000000000000000000000000000000000000000000000000000000000000000000000000000000000000000000000000000000005A
:020000040003F7
:0200000480007A
:40000000014500400152004001640040016500403A0801402B0901400115014001170140611801403A1901403F1A01403D1B01400340014001410140014201400143014023
:40004000024701400348014003490140044C0140044D014006500140015101407E027C40896F8A0F0D0A0F051001190F1D0C1F032505270A29072D032E032F0C3002350F77
:4000800036013E40580459045F01804481C58210833A857F86748E039004910E921093F09401987099FE9B019C449DA39E209F5CA301A434A596A640A768AA08AE01B00CC0
:4000C000B202B3FFB401B674BE10BF04D280D40FD804D904DB04DF050040036009020A120B080E80100212281601184219221A121B501E8122082620270829022B202F2676
:400100003102322033423620374038023B083F8058205A896104621070027A10C00DC21FC487CA73CC3DCE13D60FD806DE02E602EE02000C0C010D0C0F01100C130F140758
:40014000150B17041C011D0C1E101F02240A2508270129073010310F320E360138883E404061410249FF4AFF4BFF4DA04F015018580459045A045F01604062806440654021
:40018000668068406A806C406D206E8081028208830187088D018E028F02910899019A049B029F04A901AA01AB02AD04B004B103B202B304B408B601B708BB02BF44C06127
:4001C000C102C50EC6C3C724C83DC9FFCAFFCBFFCDAFCE07CF01D018D804D904DA04DF01E040E280E440E540E680E840EA80EC40ED20EE800042060107400A040C800E2053
:400200000F8010081708184019101A261D801E201F0621032246274029102B022F2430803211360237483840390A3F80418043104580471049244F205089510452119688AC
:40024000970899209B089C209D049E119F40A350A502A610A720C099C2B2C422CA6CCCDDCE1BD03CD224EE0200010202040206010E080F0211021401150216021C081D0142
:4002800020012101220626102A082F04300831013204330234033610370439023A203E013F04540F5604580459045B045F0180CF823088FD8A028B078D018F02909E92607C
:4002C00094739507983099079AC99F04A094A260A308A504AA0FAD01AF02B30FB6FFBE40D804D904DF010041032007480A120C040E240F801298150216801710180119806D
:400300001A541B201F8020402280232024102608271029802A012E802FA0308032093610374838403C103F8058045A415B206340861087408A018B08910292029A019B48DE
:400340009F10A080A210A340A720B001B421C05DC275C45ECAD9CC7BCE38D60FD801E20232203640CC30A660A660A6600B40C208A620AE40EE408620A620E64008400E040B
:40038000AF40C20386049204B040EA01000102140C01100112141C01000B00004000000000000000C0000000C00B0B00000000000000000000000000000000000000000035
:4003C00000000000000000000000000000000000000000000000000000000000000000000000000000000000000000000000000000000000000000000000000000000000FD
:4004000000000000000000000000000000000000000000000000000000000000000000000000000000000000000000000000000000000000000000000000000000000000BC
:40044000000000000000000000000000000000000000000000000000000000000000000000000000000000000000000000000000000000000000000000000000000000007C
:40048000000000000000000000000000000000000000000000000000000000000000000000000000000000000000000000000000000000000000000000000000000000003C
:0200000490006A
:0400000000004005B7
:0200000490105A
:04000000BC90ACAF55
:0200000490303A
:02000000298C49
:0200000490402A
:4000000000000000000000000000000000000000000000000000000000000000000000000000000000000000000000000000000000000000000000000000000000000000C0
:400040000000000000000000000000000000000000000000000000000000000000000000000000000000000000000000000000000000000000000000000000000000000080
:400080000000000000000000000000000000000000000000000000000000000000000000000000000000000000000000000000000000000000000000000000000000000040
:4000C0000000000000000000000000000000000000000000000000000000000000000000000000000000000000000000000000000000000000000000000000000000000000
:0200000490501A
:0C00000000012E16106900012E2539F5B4
:00000001FF